{
  "contractName": "ShopToken",
  "abi": [
    {
      "inputs": [
        {
          "internalType": "address",
          "name": "shopAddr",
          "type": "address"
        }
      ],
      "stateMutability": "nonpayable",
      "type": "constructor"
    },
    {
      "anonymous": false,
      "inputs": [
        {
          "indexed": true,
          "internalType": "address",
          "name": "owner",
          "type": "address"
        },
        {
          "indexed": true,
          "internalType": "address",
          "name": "spender",
          "type": "address"
        },
        {
          "indexed": false,
          "internalType": "uint256",
          "name": "value",
          "type": "uint256"
        }
      ],
      "name": "Approval",
      "type": "event"
    },
    {
      "anonymous": false,
      "inputs": [
        {
          "indexed": false,
          "internalType": "string",
          "name": "message",
          "type": "string"
        }
      ],
      "name": "ShopTokenSupply",
      "type": "event"
    },
    {
      "anonymous": false,
      "inputs": [
        {
          "indexed": true,
          "internalType": "address",
          "name": "from",
          "type": "address"
        },
        {
          "indexed": true,
          "internalType": "address",
          "name": "to",
          "type": "address"
        },
        {
          "indexed": false,
          "internalType": "uint256",
          "name": "value",
          "type": "uint256"
        }
      ],
      "name": "Transfer",
      "type": "event"
    },
    {
      "inputs": [
        {
          "internalType": "address",
          "name": "owner",
          "type": "address"
        },
        {
          "internalType": "address",
          "name": "spender",
          "type": "address"
        }
      ],
      "name": "allowance",
      "outputs": [
        {
          "internalType": "uint256",
          "name": "",
          "type": "uint256"
        }
      ],
      "stateMutability": "view",
      "type": "function",
      "constant": true
    },
    {
      "inputs": [
        {
          "internalType": "address",
          "name": "spender",
          "type": "address"
        },
        {
          "internalType": "uint256",
          "name": "amount",
          "type": "uint256"
        }
      ],
      "name": "approve",
      "outputs": [
        {
          "internalType": "bool",
          "name": "",
          "type": "bool"
        }
      ],
      "stateMutability": "nonpayable",
      "type": "function"
    },
    {
      "inputs": [
        {
          "internalType": "address",
          "name": "account",
          "type": "address"
        }
      ],
      "name": "balanceOf",
      "outputs": [
        {
          "internalType": "uint256",
          "name": "",
          "type": "uint256"
        }
      ],
      "stateMutability": "view",
      "type": "function",
      "constant": true
    },
    {
      "inputs": [],
      "name": "decimals",
      "outputs": [
        {
          "internalType": "uint8",
          "name": "",
          "type": "uint8"
        }
      ],
      "stateMutability": "view",
      "type": "function",
      "constant": true
    },
    {
      "inputs": [
        {
          "internalType": "address",
          "name": "spender",
          "type": "address"
        },
        {
          "internalType": "uint256",
          "name": "subtractedValue",
          "type": "uint256"
        }
      ],
      "name": "decreaseAllowance",
      "outputs": [
        {
          "internalType": "bool",
          "name": "",
          "type": "bool"
        }
      ],
      "stateMutability": "nonpayable",
      "type": "function"
    },
    {
      "inputs": [
        {
          "internalType": "address",
          "name": "spender",
          "type": "address"
        },
        {
          "internalType": "uint256",
          "name": "addedValue",
          "type": "uint256"
        }
      ],
      "name": "increaseAllowance",
      "outputs": [
        {
          "internalType": "bool",
          "name": "",
          "type": "bool"
        }
      ],
      "stateMutability": "nonpayable",
      "type": "function"
    },
    {
      "inputs": [],
      "name": "maxSupply",
      "outputs": [
        {
          "internalType": "uint256",
          "name": "",
          "type": "uint256"
        }
      ],
      "stateMutability": "view",
      "type": "function",
      "constant": true
    },
    {
      "inputs": [],
      "name": "name",
      "outputs": [
        {
          "internalType": "string",
          "name": "",
          "type": "string"
        }
      ],
      "stateMutability": "view",
      "type": "function",
      "constant": true
    },
    {
      "inputs": [],
      "name": "owner",
      "outputs": [
        {
          "internalType": "address",
          "name": "",
          "type": "address"
        }
      ],
      "stateMutability": "view",
      "type": "function",
      "constant": true
    },
    {
      "inputs": [],
      "name": "ownerFraction",
      "outputs": [
        {
          "internalType": "uint256",
          "name": "",
          "type": "uint256"
        }
      ],
      "stateMutability": "view",
      "type": "function",
      "constant": true
    },
    {
      "inputs": [],
      "name": "shopContr",
      "outputs": [
        {
          "internalType": "contract Web3Shop",
          "name": "",
          "type": "address"
        }
      ],
      "stateMutability": "view",
      "type": "function",
      "constant": true
    },
    {
      "inputs": [],
      "name": "symbol",
      "outputs": [
        {
          "internalType": "string",
          "name": "",
          "type": "string"
        }
      ],
      "stateMutability": "view",
      "type": "function",
      "constant": true
    },
    {
      "inputs": [],
      "name": "totalSupply",
      "outputs": [
        {
          "internalType": "uint256",
          "name": "",
          "type": "uint256"
        }
      ],
      "stateMutability": "view",
      "type": "function",
      "constant": true
    },
    {
      "inputs": [
        {
          "internalType": "address",
          "name": "recipient",
          "type": "address"
        },
        {
          "internalType": "uint256",
          "name": "amount",
          "type": "uint256"
        }
      ],
      "name": "transfer",
      "outputs": [
        {
          "internalType": "bool",
          "name": "",
          "type": "bool"
        }
      ],
      "stateMutability": "nonpayable",
      "type": "function"
    },
    {
      "inputs": [
        {
          "internalType": "address",
          "name": "sender",
          "type": "address"
        },
        {
          "internalType": "address",
          "name": "recipient",
          "type": "address"
        },
        {
          "internalType": "uint256",
          "name": "amount",
          "type": "uint256"
        }
      ],
      "name": "transferFrom",
      "outputs": [
        {
          "internalType": "bool",
          "name": "",
          "type": "bool"
        }
      ],
      "stateMutability": "nonpayable",
      "type": "function"
    },
    {
      "inputs": [
        {
          "internalType": "address",
          "name": "shopAddress",
          "type": "address"
        }
      ],
      "name": "updateShopAddress",
      "outputs": [],
      "stateMutability": "nonpayable",
      "type": "function"
    },
    {
      "inputs": [],
      "name": "getShopAddress",
      "outputs": [
        {
          "internalType": "address",
          "name": "",
          "type": "address"
        }
      ],
      "stateMutability": "view",
      "type": "function",
      "constant": true
    },
    {
      "inputs": [
        {
          "internalType": "address",
          "name": "receiver",
          "type": "address"
        },
        {
          "internalType": "uint256",
          "name": "amount",
          "type": "uint256"
        }
      ],
      "name": "reward",
      "outputs": [],
      "stateMutability": "nonpayable",
      "type": "function"
    },
    {
      "inputs": [
        {
          "internalType": "address",
          "name": "customer",
          "type": "address"
        },
        {
          "internalType": "uint256",
          "name": "amount",
          "type": "uint256"
        }
      ],
      "name": "burn",
      "outputs": [],
      "stateMutability": "nonpayable",
      "type": "function"
    }
  ],
  "bytecode": "0x608060405269d3c21bcecceda1000000600555601e6006553480156200002457600080fd5b506040516200268f3803806200268f83398181016040528101906200004a9190620003d5565b6040518060400160405280600481526020017f53544b4e000000000000000000000000000000000000000000000000000000008152506040518060400160405280600a81526020017f53686f7020546f6b656e000000000000000000000000000000000000000000008152508160039080519060200190620000ce9291906200030e565b508060049080519060200190620000e79291906200030e565b50505033600760006101000a81548173ffffffffffffffffffffffffffffffffffffffff021916908373ffffffffffffffffffffffffffffffffffffffff16021790555080600860006101000a81548173ffffffffffffffffffffffffffffffffffffffff021916908373ffffffffffffffffffffffffffffffffffffffff1602179055506200019d3360646005546006546200018591906200051e565b620001919190620004e6565b620001a460201b60201c565b50620006c3565b600073ffffffffffffffffffffffffffffffffffffffff168273ffffffffffffffffffffffffffffffffffffffff16141562000217576040517f08c379a00000000000000000000000000000000000000000000000000000000081526004016200020e9062000439565b60405180910390fd5b6200022b600083836200030960201b60201c565b80600260008282546200023f919062000489565b92505081905550806000808473ffffffffffffffffffffffffffffffffffffffff1673ffffffffffffffffffffffffffffffffffffffff168152602001908152602001600020600082825462000296919062000489565b925050819055508173ffffffffffffffffffffffffffffffffffffffff16600073ffffffffffffffffffffffffffffffffffffffff167fddf252ad1be2c89b69c2b068fc378daa952ba7f163c4a11628f55a4df523b3ef83604051620002fd91906200045b565b60405180910390a35050565b505050565b8280546200031c90620005bd565b90600052602060002090601f0160209004810192826200034057600085556200038c565b82601f106200035b57805160ff19168380011785556200038c565b828001600101855582156200038c579182015b828111156200038b5782518255916020019190600101906200036e565b5b5090506200039b91906200039f565b5090565b5b80821115620003ba576000816000905550600101620003a0565b5090565b600081519050620003cf81620006a9565b92915050565b600060208284031215620003e857600080fd5b6000620003f884828501620003be565b91505092915050565b600062000410601f8362000478565b91506200041d8262000680565b602082019050919050565b6200043381620005b3565b82525050565b60006020820190508181036000830152620004548162000401565b9050919050565b600060208201905062000472600083018462000428565b92915050565b600082825260208201905092915050565b60006200049682620005b3565b9150620004a383620005b3565b9250827fffffffffffffffffffffffffffffffffffffffffffffffffffffffffffffffff03821115620004db57620004da620005f3565b5b828201905092915050565b6000620004f382620005b3565b91506200050083620005b3565b92508262000513576200051262000622565b5b828204905092915050565b60006200052b82620005b3565b91506200053883620005b3565b9250817fffffffffffffffffffffffffffffffffffffffffffffffffffffffffffffffff0483118215151615620005745762000573620005f3565b5b828202905092915050565b60006200058c8262000593565b9050919050565b600073ffffffffffffffffffffffffffffffffffffffff82169050919050565b6000819050919050565b60006002820490506001821680620005d657607f821691505b60208210811415620005ed57620005ec62000651565b5b50919050565b7f4e487b7100000000000000000000000000000000000000000000000000000000600052601160045260246000fd5b7f4e487b7100000000000000000000000000000000000000000000000000000000600052601260045260246000fd5b7f4e487b7100000000000000000000000000000000000000000000000000000000600052602260045260246000fd5b7f45524332303a206d696e7420746f20746865207a65726f206164647265737300600082015250565b620006b4816200057f565b8114620006c057600080fd5b50565b611fbc80620006d36000396000f3fe608060405234801561001057600080fd5b50600436106101215760003560e01c806370a08231116100ad578063a457c2d711610071578063a457c2d71461030e578063a9059cbb1461033e578063b596e3951461036e578063d5abeb011461038a578063dd62ed3e146103a857610121565b806370a082311461026857806388516a89146102985780638da5cb5b146102b657806395d89b41146102d45780639dc29fac146102f257610121565b806323b872dd116100f457806323b872dd146101ae5780632555acda146101de5780632c441329146101fc578063313ce5671461021a578063395093511461023857610121565b806306fdde0314610126578063095ea7b31461014457806318160ddd1461017457806321670f2214610192575b600080fd5b61012e6103d8565b60405161013b9190611747565b60405180910390f35b61015e6004803603810190610159919061144c565b61046a565b60405161016b9190611711565b60405180910390f35b61017c610488565b6040516101899190611929565b60405180910390f35b6101ac60048036038101906101a7919061144c565b610492565b005b6101c860048036038101906101c391906113fd565b610587565b6040516101d59190611711565b60405180910390f35b6101e6610688565b6040516101f3919061172c565b60405180910390f35b6102046106ae565b60405161021191906116f6565b60405180910390f35b6102226106d8565b60405161022f9190611944565b60405180910390f35b610252600480360381019061024d919061144c565b6106e1565b60405161025f9190611711565b60405180910390f35b610282600480360381019061027d9190611398565b61078d565b60405161028f9190611929565b60405180910390f35b6102a06107d5565b6040516102ad9190611929565b60405180910390f35b6102be6107db565b6040516102cb91906116f6565b60405180910390f35b6102dc610801565b6040516102e99190611747565b60405180910390f35b61030c6004803603810190610307919061144c565b610893565b005b6103286004803603810190610323919061144c565b61097c565b6040516103359190611711565b60405180910390f35b6103586004803603810190610353919061144c565b610a70565b6040516103659190611711565b60405180910390f35b61038860048036038101906103839190611398565b610a8e565b005b610392610b62565b60405161039f9190611929565b60405180910390f35b6103c260048036038101906103bd91906113c1565b610b68565b6040516103cf9190611929565b60405180910390f35b6060600380546103e790611ab1565b80601f016020809104026020016040519081016040528092919081815260200182805461041390611ab1565b80156104605780601f1061043557610100808354040283529160200191610460565b820191906000526020600020905b81548152906001019060200180831161044357829003601f168201915b5050505050905090565b600061047e610477610bef565b8484610bf7565b6001905092915050565b6000600254905090565b600860009054906101000a900473ffffffffffffffffffffffffffffffffffffffff1673ffffffffffffffffffffffffffffffffffffffff163373ffffffffffffffffffffffffffffffffffffffff1614610522576040517f08c379a0000000000000000000000000000000000000000000000000000000008152600401610519906118c9565b60405180910390fd5b6005548161052e610488565b610538919061197b565b1115610578577f4e65a0593aa9d398efd419edb1bcd30aec82a72b64f89a234ae243c5a0c001da60405161056b90611849565b60405180910390a1610583565b6105828282610dc2565b5b5050565b6000610594848484610f16565b6000600160008673ffffffffffffffffffffffffffffffffffffffff1673ffffffffffffffffffffffffffffffffffffffff16815260200190815260200160002060006105df610bef565b73ffffffffffffffffffffffffffffffffffffffff1673ffffffffffffffffffffffffffffffffffffffff1681526020019081526020016000205490508281101561065f576040517f08c379a000000000000000000000000000000000000000000000000000000000815260040161065690611829565b60405180910390fd5b61067c8561066b610bef565b858461067791906119d1565b610bf7565b60019150509392505050565b600860009054906101000a900473ffffffffffffffffffffffffffffffffffffffff1681565b6000600860009054906101000a900473ffffffffffffffffffffffffffffffffffffffff16905090565b60006012905090565b60006107836106ee610bef565b8484600160006106fc610bef565b73ffffffffffffffffffffffffffffffffffffffff1673ffffffffffffffffffffffffffffffffffffffff16815260200190815260200160002060008873ffffffffffffffffffffffffffffffffffffffff1673ffffffffffffffffffffffffffffffffffffffff1681526020019081526020016000205461077e919061197b565b610bf7565b6001905092915050565b60008060008373ffffffffffffffffffffffffffffffffffffffff1673ffffffffffffffffffffffffffffffffffffffff168152602001908152602001600020549050919050565b60065481565b600760009054906101000a900473ffffffffffffffffffffffffffffffffffffffff1681565b60606004805461081090611ab1565b80601f016020809104026020016040519081016040528092919081815260200182805461083c90611ab1565b80156108895780601f1061085e57610100808354040283529160200191610889565b820191906000526020600020905b81548152906001019060200180831161086c57829003601f168201915b5050505050905090565b600860009054906101000a900473ffffffffffffffffffffffffffffffffffffffff1673ffffffffffffffffffffffffffffffffffffffff163373ffffffffffffffffffffffffffffffffffffffff1614610923576040517f08c379a000000000000000000000000000000000000000000000000000000000815260040161091a906118c9565b60405180910390fd5b8061092d8361078d565b101561096e576040517f08c379a0000000000000000000000000000000000000000000000000000000008152600401610965906117e9565b60405180910390fd5b6109788282611195565b5050565b6000806001600061098b610bef565b73ffffffffffffffffffffffffffffffffffffffff1673ffffffffffffffffffffffffffffffffffffffff16815260200190815260200160002060008573ffffffffffffffffffffffffffffffffffffffff1673ffffffffffffffffffffffffffffffffffffffff16815260200190815260200160002054905082811015610a48576040517f08c379a0000000000000000000000000000000000000000000000000000000008152600401610a3f906118e9565b60405180910390fd5b610a65610a53610bef565b858584610a6091906119d1565b610bf7565b600191505092915050565b6000610a84610a7d610bef565b8484610f16565b6001905092915050565b600760009054906101000a900473ffffffffffffffffffffffffffffffffffffffff1673ffffffffffffffffffffffffffffffffffffffff163373ffffffffffffffffffffffffffffffffffffffff1614610b1e576040517f08c379a0000000000000000000000000000000000000000000000000000000008152600401610b1590611809565b60405180910390fd5b80600860006101000a81548173ffffffffffffffffffffffffffffffffffffffff021916908373ffffffffffffffffffffffffffffffffffffffff16021790555050565b60055481565b6000600160008473ffffffffffffffffffffffffffffffffffffffff1673ffffffffffffffffffffffffffffffffffffffff16815260200190815260200160002060008373ffffffffffffffffffffffffffffffffffffffff1673ffffffffffffffffffffffffffffffffffffffff16815260200190815260200160002054905092915050565b600033905090565b600073ffffffffffffffffffffffffffffffffffffffff168373ffffffffffffffffffffffffffffffffffffffff161415610c67576040517f08c379a0000000000000000000000000000000000000000000000000000000008152600401610c5e906118a9565b60405180910390fd5b600073ffffffffffffffffffffffffffffffffffffffff168273ffffffffffffffffffffffffffffffffffffffff161415610cd7576040517f08c379a0000000000000000000000000000000000000000000000000000000008152600401610cce906117a9565b60405180910390fd5b80600160008573ffffffffffffffffffffffffffffffffffffffff1673ffffffffffffffffffffffffffffffffffffffff16815260200190815260200160002060008473ffffffffffffffffffffffffffffffffffffffff1673ffffffffffffffffffffffffffffffffffffffff168152602001908152602001600020819055508173ffffffffffffffffffffffffffffffffffffffff168373ffffffffffffffffffffffffffffffffffffffff167f8c5be1e5ebec7d5bd14f71427d1e84f3dd0314c0f7b2291e5b200ac8c7c3b92583604051610db59190611929565b60405180910390a3505050565b600073ffffffffffffffffffffffffffffffffffffffff168273ffffffffffffffffffffffffffffffffffffffff161415610e32576040517f08c379a0000000000000000000000000000000000000000000000000000000008152600401610e2990611909565b60405180910390fd5b610e3e60008383611369565b8060026000828254610e50919061197b565b92505081905550806000808473ffffffffffffffffffffffffffffffffffffffff1673ffffffffffffffffffffffffffffffffffffffff1681526020019081526020016000206000828254610ea5919061197b565b925050819055508173ffffffffffffffffffffffffffffffffffffffff16600073ffffffffffffffffffffffffffffffffffffffff167fddf252ad1be2c89b69c2b068fc378daa952ba7f163c4a11628f55a4df523b3ef83604051610f0a9190611929565b60405180910390a35050565b600073ffffffffffffffffffffffffffffffffffffffff168373ffffffffffffffffffffffffffffffffffffffff161415610f86576040517f08c379a0000000000000000000000000000000000000000000000000000000008152600401610f7d90611889565b60405180910390fd5b600073ffffffffffffffffffffffffffffffffffffffff168273ffffffffffffffffffffffffffffffffffffffff161415610ff6576040517f08c379a0000000000000000000000000000000000000000000000000000000008152600401610fed90611769565b60405180910390fd5b611001838383611369565b60008060008573ffffffffffffffffffffffffffffffffffffffff1673ffffffffffffffffffffffffffffffffffffffff16815260200190815260200160002054905081811015611087576040517f08c379a000000000000000000000000000000000000000000000000000000000815260040161107e906117c9565b60405180910390fd5b818161109391906119d1565b6000808673ffffffffffffffffffffffffffffffffffffffff1673ffffffffffffffffffffffffffffffffffffffff16815260200190815260200160002081905550816000808573ffffffffffffffffffffffffffffffffffffffff1673ffffffffffffffffffffffffffffffffffffffff1681526020019081526020016000206000828254611123919061197b565b925050819055508273ffffffffffffffffffffffffffffffffffffffff168473ffffffffffffffffffffffffffffffffffffffff167fddf252ad1be2c89b69c2b068fc378daa952ba7f163c4a11628f55a4df523b3ef846040516111879190611929565b60405180910390a350505050565b600073ffffffffffffffffffffffffffffffffffffffff168273ffffffffffffffffffffffffffffffffffffffff161415611205576040517f08c379a00000000000000000000000000000000000000000000000000000000081526004016111fc90611869565b60405180910390fd5b61121182600083611369565b60008060008473ffffffffffffffffffffffffffffffffffffffff1673ffffffffffffffffffffffffffffffffffffffff16815260200190815260200160002054905081811015611297576040517f08c379a000000000000000000000000000000000000000000000000000000000815260040161128e90611789565b60405180910390fd5b81816112a391906119d1565b6000808573ffffffffffffffffffffffffffffffffffffffff1673ffffffffffffffffffffffffffffffffffffffff1681526020019081526020016000208190555081600260008282546112f791906119d1565b92505081905550600073ffffffffffffffffffffffffffffffffffffffff168373ffffffffffffffffffffffffffffffffffffffff167fddf252ad1be2c89b69c2b068fc378daa952ba7f163c4a11628f55a4df523b3ef8460405161135c9190611929565b60405180910390a3505050565b505050565b60008135905061137d81611f58565b92915050565b60008135905061139281611f6f565b92915050565b6000602082840312156113aa57600080fd5b60006113b88482850161136e565b91505092915050565b600080604083850312156113d457600080fd5b60006113e28582860161136e565b92505060206113f38582860161136e565b9150509250929050565b60008060006060848603121561141257600080fd5b60006114208682870161136e565b93505060206114318682870161136e565b925050604061144286828701611383565b9150509250925092565b6000806040838503121561145f57600080fd5b600061146d8582860161136e565b925050602061147e85828601611383565b9150509250929050565b61149181611a05565b82525050565b6114a081611a17565b82525050565b6114af81611a5a565b82525050565b60006114c08261195f565b6114ca818561196a565b93506114da818560208601611a7e565b6114e381611b41565b840191505092915050565b60006114fb60238361196a565b915061150682611b52565b604082019050919050565b600061151e60228361196a565b915061152982611ba1565b604082019050919050565b600061154160228361196a565b915061154c82611bf0565b604082019050919050565b600061156460268361196a565b915061156f82611c3f565b604082019050919050565b600061158760348361196a565b915061159282611c8e565b604082019050919050565b60006115aa601e8361196a565b91506115b582611cdd565b602082019050919050565b60006115cd60288361196a565b91506115d882611d06565b604082019050919050565b60006115f060328361196a565b91506115fb82611d55565b604082019050919050565b600061161360218361196a565b915061161e82611da4565b604082019050919050565b600061163660258361196a565b915061164182611df3565b604082019050919050565b600061165960248361196a565b915061166482611e42565b604082019050919050565b600061167c60258361196a565b915061168782611e91565b604082019050919050565b600061169f60258361196a565b91506116aa82611ee0565b604082019050919050565b60006116c2601f8361196a565b91506116cd82611f2f565b602082019050919050565b6116e181611a43565b82525050565b6116f081611a4d565b82525050565b600060208201905061170b6000830184611488565b92915050565b60006020820190506117266000830184611497565b92915050565b600060208201905061174160008301846114a6565b92915050565b6000602082019050818103600083015261176181846114b5565b905092915050565b60006020820190508181036000830152611782816114ee565b9050919050565b600060208201905081810360008301526117a281611511565b9050919050565b600060208201905081810360008301526117c281611534565b9050919050565b600060208201905081810360008301526117e281611557565b9050919050565b600060208201905081810360008301526118028161157a565b9050919050565b600060208201905081810360008301526118228161159d565b9050919050565b60006020820190508181036000830152611842816115c0565b9050919050565b60006020820190508181036000830152611862816115e3565b9050919050565b6000602082019050818103600083015261188281611606565b9050919050565b600060208201905081810360008301526118a281611629565b9050919050565b600060208201905081810360008301526118c28161164c565b9050919050565b600060208201905081810360008301526118e28161166f565b9050919050565b6000602082019050818103600083015261190281611692565b9050919050565b60006020820190508181036000830152611922816116b5565b9050919050565b600060208201905061193e60008301846116d8565b92915050565b600060208201905061195960008301846116e7565b92915050565b600081519050919050565b600082825260208201905092915050565b600061198682611a43565b915061199183611a43565b9250827fffffffffffffffffffffffffffffffffffffffffffffffffffffffffffffffff038211156119c6576119c5611ae3565b5b828201905092915050565b60006119dc82611a43565b91506119e783611a43565b9250828210156119fa576119f9611ae3565b5b828203905092915050565b6000611a1082611a23565b9050919050565b60008115159050919050565b600073ffffffffffffffffffffffffffffffffffffffff82169050919050565b6000819050919050565b600060ff82169050919050565b6000611a6582611a6c565b9050919050565b6000611a7782611a23565b9050919050565b60005b83811015611a9c578082015181840152602081019050611a81565b83811115611aab576000848401525b50505050565b60006002820490506001821680611ac957607f821691505b60208210811415611add57611adc611b12565b5b50919050565b7f4e487b7100000000000000000000000000000000000000000000000000000000600052601160045260246000fd5b7f4e487b7100000000000000000000000000000000000000000000000000000000600052602260045260246000fd5b6000601f19601f8301169050919050565b7f45524332303a207472616e7366657220746f20746865207a65726f206164647260008201527f6573730000000000000000000000000000000000000000000000000000000000602082015250565b7f45524332303a206275726e20616d6f756e7420657863656564732062616c616e60008201527f6365000000000000000000000000000000000000000000000000000000000000602082015250565b7f45524332303a20617070726f766520746f20746865207a65726f20616464726560008201527f7373000000000000000000000000000000000000000000000000000000000000602082015250565b7f45524332303a207472616e7366657220616d6f756e742065786365656473206260008201527f616c616e63650000000000000000000000000000000000000000000000000000602082015250565b7f53686f70546f6b656e236275726e3a204275726e20616d6f756e74206578636560008201527f65647320637573746f6d65722062616c616e6365000000000000000000000000602082015250565b7f53686f70546f6b656e3a20556e617574686f72697a6564206163636573730000600082015250565b7f45524332303a207472616e7366657220616d6f756e742065786365656473206160008201527f6c6c6f77616e6365000000000000000000000000000000000000000000000000602082015250565b7f53686f70546f6b656e237265776172643a204e656172206f72206174206d617860008201527f2053686f7020746f6b656e20737570706c790000000000000000000000000000602082015250565b7f45524332303a206275726e2066726f6d20746865207a65726f2061646472657360008201527f7300000000000000000000000000000000000000000000000000000000000000602082015250565b7f45524332303a207472616e736665722066726f6d20746865207a65726f20616460008201527f6472657373000000000000000000000000000000000000000000000000000000602082015250565b7f45524332303a20617070726f76652066726f6d20746865207a65726f2061646460008201527f7265737300000000000000000000000000000000000000000000000000000000602082015250565b7f53686f70546f6b656e3a204f6e6c792053686f7020636f6e747261637420616c60008201527f6c6f776564000000000000000000000000000000000000000000000000000000602082015250565b7f45524332303a2064656372656173656420616c6c6f77616e63652062656c6f7760008201527f207a65726f000000000000000000000000000000000000000000000000000000602082015250565b7f45524332303a206d696e7420746f20746865207a65726f206164647265737300600082015250565b611f6181611a05565b8114611f6c57600080fd5b50565b611f7881611a43565b8114611f8357600080fd5b5056fea2646970667358221220242b471dcf7910e2dbf443f54d18dd51cabe82f461ae56ff781e3ee87a0b1bcc64736f6c63430008040033",
  "immutableReferences": {},
  "source": "// SPDX-License-Identifier: MIT\r\n\r\npragma solidity ^0.8.3;\r\n\r\nimport '@openzeppelin/contracts/token/ERC20/ERC20.sol';\r\nimport './Web3Shop.sol';\r\n\r\ncontract ShopToken is ERC20 {\r\n\r\n    uint public maxSupply = 1000000 ether;\r\n    uint public ownerFraction = 30; // percentage of token supply allocated to owner account\r\n\r\n    // accessors\r\n    address public owner;\r\n    Web3Shop public shopContr;\r\n\r\n    modifier onlyOwner() {\r\n        require(msg.sender == owner, \"ShopToken: Unauthorized access\");\r\n        _;\r\n    }\r\n\r\n    modifier onlyShop() {\r\n        require(msg.sender == address(shopContr), \"ShopToken: Only Shop contract allowed\");\r\n        _;\r\n    }\r\n\r\n    event ShopTokenSupply(string message);\r\n\r\n    constructor (address shopAddr) ERC20(\"STKN\", \"Shop Token\") {\r\n        owner = msg.sender;\r\n        shopContr = Web3Shop(shopAddr);\r\n        _mint(msg.sender, ownerFraction * maxSupply / 100);\r\n    }\r\n\r\n    function updateShopAddress(address shopAddress) external onlyOwner() {\r\n        shopContr = Web3Shop(shopAddress);\r\n    }\r\n\r\n    function getShopAddress() external view returns(address) {\r\n        return address(shopContr);\r\n    }\r\n\r\n    function reward(address receiver, uint amount) external onlyShop() {\r\n        // require(totalSupply() + amount <= maxSupply, \"Mint: Near or at max Shop token supply\");\r\n        if(totalSupply() + amount > maxSupply) {\r\n            emit ShopTokenSupply(\"ShopToken#reward: Near or at max Shop token supply\");\r\n            return;\r\n        }\r\n        _mint(receiver, amount);\r\n    }\r\n\r\n    function burn(address customer, uint amount) external onlyShop() {\r\n        require(balanceOf(customer) >= amount, \"ShopToken#burn: Burn amount exceeds customer balance\");\r\n        _burn(customer, amount);\r\n    }\r\n}",
  "sourcePath": "C:\\Users\\DELL\\Documents\\Projects\\block-store\\contracts\\ShopToken.sol",
  "compiler": {
    "name": "solc",
    "version": "0.8.4+commit.c7e474f2.Emscripten.clang"
  },
  "schemaVersion": "3.3.4",
  "updatedAt": "2021-08-11T18:28:17.330Z",
  "networkType": "ethereum",
  "devdoc": {
    "kind": "dev",
    "methods": {
      "allowance(address,address)": {
        "details": "See {IERC20-allowance}."
      },
      "approve(address,uint256)": {
        "details": "See {IERC20-approve}. Requirements: - `spender` cannot be the zero address."
      },
      "balanceOf(address)": {
        "details": "See {IERC20-balanceOf}."
      },
      "decimals()": {
        "details": "Returns the number of decimals used to get its user representation. For example, if `decimals` equals `2`, a balance of `505` tokens should be displayed to a user as `5,05` (`505 / 10 ** 2`). Tokens usually opt for a value of 18, imitating the relationship between Ether and Wei. This is the value {ERC20} uses, unless this function is overridden; NOTE: This information is only used for _display_ purposes: it in no way affects any of the arithmetic of the contract, including {IERC20-balanceOf} and {IERC20-transfer}."
      },
      "decreaseAllowance(address,uint256)": {
        "details": "Atomically decreases the allowance granted to `spender` by the caller. This is an alternative to {approve} that can be used as a mitigation for problems described in {IERC20-approve}. Emits an {Approval} event indicating the updated allowance. Requirements: - `spender` cannot be the zero address. - `spender` must have allowance for the caller of at least `subtractedValue`."
      },
      "increaseAllowance(address,uint256)": {
        "details": "Atomically increases the allowance granted to `spender` by the caller. This is an alternative to {approve} that can be used as a mitigation for problems described in {IERC20-approve}. Emits an {Approval} event indicating the updated allowance. Requirements: - `spender` cannot be the zero address."
      },
      "name()": {
        "details": "Returns the name of the token."
      },
      "symbol()": {
        "details": "Returns the symbol of the token, usually a shorter version of the name."
      },
      "totalSupply()": {
        "details": "See {IERC20-totalSupply}."
      },
      "transfer(address,uint256)": {
        "details": "See {IERC20-transfer}. Requirements: - `recipient` cannot be the zero address. - the caller must have a balance of at least `amount`."
      },
      "transferFrom(address,address,uint256)": {
        "details": "See {IERC20-transferFrom}. Emits an {Approval} event indicating the updated allowance. This is not required by the EIP. See the note at the beginning of {ERC20}. Requirements: - `sender` and `recipient` cannot be the zero address. - `sender` must have a balance of at least `amount`. - the caller must have allowance for ``sender``'s tokens of at least `amount`."
      }
    },
    "version": 1
  },
  "userdoc": {
    "kind": "user",
    "methods": {},
    "version": 1
  }
}