{
  "contractName": "Web3Shop",
  "abi": [
    {
      "inputs": [
        {
          "internalType": "address",
          "name": "_paymentToken",
          "type": "address"
        },
        {
          "internalType": "string",
          "name": "nftEndpoint",
          "type": "string"
        }
      ],
      "stateMutability": "nonpayable",
      "type": "constructor"
    },
    {
      "anonymous": false,
      "inputs": [
        {
          "indexed": true,
          "internalType": "address",
          "name": "previousOwner",
          "type": "address"
        },
        {
          "indexed": true,
          "internalType": "address",
          "name": "newOwner",
          "type": "address"
        }
      ],
      "name": "OwnershipTransferred",
      "type": "event"
    },
    {
      "anonymous": false,
      "inputs": [
        {
          "indexed": true,
          "internalType": "address",
          "name": "customer",
          "type": "address"
        },
        {
          "indexed": false,
          "internalType": "uint256",
          "name": "nftID",
          "type": "uint256"
        },
        {
          "indexed": false,
          "internalType": "string",
          "name": "itemID",
          "type": "string"
        }
      ],
      "name": "nftMinted",
      "type": "event"
    },
    {
      "anonymous": false,
      "inputs": [
        {
          "indexed": true,
          "internalType": "address",
          "name": "customer",
          "type": "address"
        },
        {
          "indexed": false,
          "internalType": "uint256",
          "name": "amount",
          "type": "uint256"
        }
      ],
      "name": "paymentMade",
      "type": "event"
    },
    {
      "inputs": [
        {
          "internalType": "address",
          "name": "",
          "type": "address"
        }
      ],
      "name": "accruedSpend",
      "outputs": [
        {
          "internalType": "uint256",
          "name": "",
          "type": "uint256"
        }
      ],
      "stateMutability": "view",
      "type": "function",
      "constant": true
    },
    {
      "inputs": [],
      "name": "owner",
      "outputs": [
        {
          "internalType": "address",
          "name": "",
          "type": "address"
        }
      ],
      "stateMutability": "view",
      "type": "function",
      "constant": true
    },
    {
      "inputs": [],
      "name": "paymentToken",
      "outputs": [
        {
          "internalType": "contract IERC20",
          "name": "",
          "type": "address"
        }
      ],
      "stateMutability": "view",
      "type": "function",
      "constant": true
    },
    {
      "inputs": [],
      "name": "renounceOwnership",
      "outputs": [],
      "stateMutability": "nonpayable",
      "type": "function"
    },
    {
      "inputs": [],
      "name": "rewardRatio",
      "outputs": [
        {
          "internalType": "uint256",
          "name": "",
          "type": "uint256"
        }
      ],
      "stateMutability": "view",
      "type": "function",
      "constant": true
    },
    {
      "inputs": [],
      "name": "shopToken",
      "outputs": [
        {
          "internalType": "contract ShopToken",
          "name": "",
          "type": "address"
        }
      ],
      "stateMutability": "view",
      "type": "function",
      "constant": true
    },
    {
      "inputs": [],
      "name": "storeNFTaddress",
      "outputs": [
        {
          "internalType": "address",
          "name": "",
          "type": "address"
        }
      ],
      "stateMutability": "view",
      "type": "function",
      "constant": true
    },
    {
      "inputs": [
        {
          "internalType": "address",
          "name": "newOwner",
          "type": "address"
        }
      ],
      "name": "transferOwnership",
      "outputs": [],
      "stateMutability": "nonpayable",
      "type": "function"
    },
    {
      "inputs": [
        {
          "internalType": "address",
          "name": "shopTknAddress",
          "type": "address"
        }
      ],
      "name": "updateShopToken",
      "outputs": [],
      "stateMutability": "nonpayable",
      "type": "function"
    },
    {
      "inputs": [
        {
          "internalType": "uint256",
          "name": "amount",
          "type": "uint256"
        },
        {
          "internalType": "string",
          "name": "itemID",
          "type": "string"
        }
      ],
      "name": "purchase",
      "outputs": [
        {
          "internalType": "uint256",
          "name": "tokenId",
          "type": "uint256"
        }
      ],
      "stateMutability": "nonpayable",
      "type": "function"
    },
    {
      "inputs": [
        {
          "internalType": "address",
          "name": "recipient",
          "type": "address"
        },
        {
          "internalType": "uint256",
          "name": "amount",
          "type": "uint256"
        },
        {
          "internalType": "bool",
          "name": "mustBurn",
          "type": "bool"
        }
      ],
      "name": "refund",
      "outputs": [],
      "stateMutability": "nonpayable",
      "type": "function"
    },
    {
      "inputs": [
        {
          "internalType": "string",
          "name": "uri",
          "type": "string"
        }
      ],
      "name": "setNFTbaseUri",
      "outputs": [],
      "stateMutability": "nonpayable",
      "type": "function"
    }
  ],
  "bytecode": "0x608060405260646005553480156200001657600080fd5b50604051620054d6380380620054d683398181016040528101906200003c91906200025c565b6001600081905550600062000056620001bd60201b60201c565b905080600160006101000a81548173ffffffffffffffffffffffffffffffffffffffff021916908373ffffffffffffffffffffffffffffffffffffffff1602179055508073ffffffffffffffffffffffffffffffffffffffff16600073ffffffffffffffffffffffffffffffffffffffff167f8be0079c531659141344cd1fd0a4f28419497f9722a3daafe3b4186f6b6457e060405160405180910390a35081600260006101000a81548173ffffffffffffffffffffffffffffffffffffffff021916908373ffffffffffffffffffffffffffffffffffffffff1602179055506000816040516200014790620001c5565b62000153919062000345565b604051809103906000f08015801562000170573d6000803e3d6000fd5b50905080600460006101000a81548173ffffffffffffffffffffffffffffffffffffffff021916908373ffffffffffffffffffffffffffffffffffffffff1602179055505050506200055a565b600033905090565b6136ae8062001e2883390190565b6000620001ea620001e484620003bc565b62000393565b9050828152602081018484840111156200020357600080fd5b6200021084828562000442565b509392505050565b600081519050620002298162000540565b92915050565b600082601f8301126200024157600080fd5b815162000253848260208601620001d3565b91505092915050565b600080604083850312156200027057600080fd5b6000620002808582860162000218565b925050602083015167ffffffffffffffff8111156200029e57600080fd5b620002ac858286016200022f565b9150509250929050565b6000620002c382620003f2565b620002cf8185620003fd565b9350620002e181856020860162000442565b620002ec81620004dd565b840191505092915050565b600062000306601283620003fd565b91506200031382620004ee565b602082019050919050565b60006200032d600483620003fd565b91506200033a8262000517565b602082019050919050565b600060608201905081810360008301526200036081620002f7565b9050818103602083015262000375816200031e565b905081810360408301526200038b8184620002b6565b905092915050565b60006200039f620003b2565b9050620003ad828262000478565b919050565b6000604051905090565b600067ffffffffffffffff821115620003da57620003d9620004ae565b5b620003e582620004dd565b9050602081019050919050565b600081519050919050565b600082825260208201905092915050565b60006200041b8262000422565b9050919050565b600073ffffffffffffffffffffffffffffffffffffffff82169050919050565b60005b838110156200046257808201518184015260208101905062000445565b8381111562000472576000848401525b50505050565b6200048382620004dd565b810181811067ffffffffffffffff82111715620004a557620004a4620004ae565b5b80604052505050565b7f4e487b7100000000000000000000000000000000000000000000000000000000600052604160045260246000fd5b6000601f19601f8301169050919050565b7f576562332053746f72652050726f647563740000000000000000000000000000600082015250565b7f5733535000000000000000000000000000000000000000000000000000000000600082015250565b6200054b816200040e565b81146200055757600080fd5b50565b6118be806200056a6000396000f3fe608060405234801561001057600080fd5b50600436106100b45760003560e01c8063715018a611610071578063715018a61461017b57806388f9ec18146101855780638da5cb5b146101a1578063da9581b6146101bf578063ece571d1146101ef578063f2fde38b1461020d576100b4565b80630103a6a3146100b95780633013ce29146100d55780635d3e9bdb146100f35780635fa47c7d1461010f578063646033bc1461013f5780636d884cc31461015d575b600080fd5b6100d360048036038101906100ce9190610fc8565b610229565b005b6100dd610584565b6040516100ea91906112cd565b60405180910390f35b61010d60048036038101906101089190610f9f565b6105aa565b005b61012960048036038101906101249190610f9f565b61066a565b60405161013691906113c5565b60405180910390f35b610147610682565b60405161015491906113c5565b60405180910390f35b610165610688565b6040516101729190611222565b60405180910390f35b6101836106ae565b005b61019f600480360381019061019a9190611040565b6107eb565b005b6101a96108f7565b6040516101b69190611222565b60405180910390f35b6101d960048036038101906101d491906110aa565b610921565b6040516101e691906113c5565b60405180910390f35b6101f7610cf4565b60405161020491906112e8565b60405180910390f35b61022760048036038101906102229190610f9f565b610d1a565b005b610231610ec6565b73ffffffffffffffffffffffffffffffffffffffff1661024f6108f7565b73ffffffffffffffffffffffffffffffffffffffff16146102a5576040517f08c379a000000000000000000000000000000000000000000000000000000000815260040161029c90611365565b60405180910390fd5b600260005414156102eb576040517f08c379a00000000000000000000000000000000000000000000000000000000081526004016102e2906113a5565b60405180910390fd5b600260008190555081600660008573ffffffffffffffffffffffffffffffffffffffff1673ffffffffffffffffffffffffffffffffffffffff168152602001908152602001600020541015610375576040517f08c379a000000000000000000000000000000000000000000000000000000000815260040161036c90611345565b60405180910390fd5b600073ffffffffffffffffffffffffffffffffffffffff16600360009054906101000a900473ffffffffffffffffffffffffffffffffffffffff1673ffffffffffffffffffffffffffffffffffffffff16141580156103d15750805b1561048357600360009054906101000a900473ffffffffffffffffffffffffffffffffffffffff1673ffffffffffffffffffffffffffffffffffffffff16639dc29fac846005548564e8d4a510006104299190611509565b61043391906114d8565b6040518363ffffffff1660e01b81526004016104509291906112a4565b600060405180830381600087803b15801561046a57600080fd5b505af115801561047e573d6000803e3d6000fd5b505050505b6000600260009054906101000a900473ffffffffffffffffffffffffffffffffffffffff1673ffffffffffffffffffffffffffffffffffffffff1663a9059cbb85856040518363ffffffff1660e01b81526004016104e29291906112a4565b602060405180830381600087803b1580156104fc57600080fd5b505af1158015610510573d6000803e3d6000fd5b505050506040513d601f19601f820116820180604052508101906105349190611017565b905080610576576040517f08c379a000000000000000000000000000000000000000000000000000000000815260040161056d90611385565b60405180910390fd5b506001600081905550505050565b600260009054906101000a900473ffffffffffffffffffffffffffffffffffffffff1681565b6105b2610ec6565b73ffffffffffffffffffffffffffffffffffffffff166105d06108f7565b73ffffffffffffffffffffffffffffffffffffffff1614610626576040517f08c379a000000000000000000000000000000000000000000000000000000000815260040161061d90611365565b60405180910390fd5b80600360006101000a81548173ffffffffffffffffffffffffffffffffffffffff021916908373ffffffffffffffffffffffffffffffffffffffff16021790555050565b60066020528060005260406000206000915090505481565b60055481565b600460009054906101000a900473ffffffffffffffffffffffffffffffffffffffff1681565b6106b6610ec6565b73ffffffffffffffffffffffffffffffffffffffff166106d46108f7565b73ffffffffffffffffffffffffffffffffffffffff161461072a576040517f08c379a000000000000000000000000000000000000000000000000000000000815260040161072190611365565b60405180910390fd5b600073ffffffffffffffffffffffffffffffffffffffff16600160009054906101000a900473ffffffffffffffffffffffffffffffffffffffff1673ffffffffffffffffffffffffffffffffffffffff167f8be0079c531659141344cd1fd0a4f28419497f9722a3daafe3b4186f6b6457e060405160405180910390a36000600160006101000a81548173ffffffffffffffffffffffffffffffffffffffff021916908373ffffffffffffffffffffffffffffffffffffffff160217905550565b6107f3610ec6565b73ffffffffffffffffffffffffffffffffffffffff166108116108f7565b73ffffffffffffffffffffffffffffffffffffffff1614610867576040517f08c379a000000000000000000000000000000000000000000000000000000000815260040161085e90611365565b60405180910390fd5b600460009054906101000a900473ffffffffffffffffffffffffffffffffffffffff1673ffffffffffffffffffffffffffffffffffffffff166355f804b3826040518263ffffffff1660e01b81526004016108c29190611303565b600060405180830381600087803b1580156108dc57600080fd5b505af11580156108f0573d6000803e3d6000fd5b5050505050565b6000600160009054906101000a900473ffffffffffffffffffffffffffffffffffffffff16905090565b600060026000541415610969576040517f08c379a0000000000000000000000000000000000000000000000000000000008152600401610960906113a5565b60405180910390fd5b60026000819055506000600260009054906101000a900473ffffffffffffffffffffffffffffffffffffffff1673ffffffffffffffffffffffffffffffffffffffff166323b872dd3330876040518463ffffffff1660e01b81526004016109d29392919061123d565b602060405180830381600087803b1580156109ec57600080fd5b505af1158015610a00573d6000803e3d6000fd5b505050506040513d601f19601f82011682018060405250810190610a249190611017565b90508015610ce0573373ffffffffffffffffffffffffffffffffffffffff167fa019eaadc256ed6e045d4794a292dc8303bb65c30f55e714993fd8790313d11f85604051610a7291906113c5565b60405180910390a283600660003373ffffffffffffffffffffffffffffffffffffffff1673ffffffffffffffffffffffffffffffffffffffff1681526020019081526020016000206000828254610ac99190611482565b925050819055506000600460009054906101000a900473ffffffffffffffffffffffffffffffffffffffff1673ffffffffffffffffffffffffffffffffffffffff16633d02d0c933866040518363ffffffff1660e01b8152600401610b2f929190611274565b602060405180830381600087803b158015610b4957600080fd5b505af1158015610b5d573d6000803e3d6000fd5b505050506040513d601f19601f82011682018060405250810190610b819190611081565b90503373ffffffffffffffffffffffffffffffffffffffff167f1f99c63235dc68ccdea086b13dceb9b432242dcd37c5141a1af354c9b753c9248286604051610bcb9291906113e0565b60405180910390a2600073ffffffffffffffffffffffffffffffffffffffff16600360009054906101000a900473ffffffffffffffffffffffffffffffffffffffff1673ffffffffffffffffffffffffffffffffffffffff1614610cd657600360009054906101000a900473ffffffffffffffffffffffffffffffffffffffff1673ffffffffffffffffffffffffffffffffffffffff166321670f22336005548864e8d4a51000610c7c9190611509565b610c8691906114d8565b6040518363ffffffff1660e01b8152600401610ca39291906112a4565b600060405180830381600087803b158015610cbd57600080fd5b505af1158015610cd1573d6000803e3d6000fd5b505050505b8092505050610ce6565b60009150505b600160008190555092915050565b600360009054906101000a900473ffffffffffffffffffffffffffffffffffffffff1681565b610d22610ec6565b73ffffffffffffffffffffffffffffffffffffffff16610d406108f7565b73ffffffffffffffffffffffffffffffffffffffff1614610d96576040517f08c379a0000000000000000000000000000000000000000000000000000000008152600401610d8d90611365565b60405180910390fd5b600073ffffffffffffffffffffffffffffffffffffffff168173ffffffffffffffffffffffffffffffffffffffff161415610e06576040517f08c379a0000000000000000000000000000000000000000000000000000000008152600401610dfd90611325565b60405180910390fd5b8073ffffffffffffffffffffffffffffffffffffffff16600160009054906101000a900473ffffffffffffffffffffffffffffffffffffffff1673ffffffffffffffffffffffffffffffffffffffff167f8be0079c531659141344cd1fd0a4f28419497f9722a3daafe3b4186f6b6457e060405160405180910390a380600160006101000a81548173ffffffffffffffffffffffffffffffffffffffff021916908373ffffffffffffffffffffffffffffffffffffffff16021790555050565b600033905090565b6000610ee1610edc84611435565b611410565b905082815260208101848484011115610ef957600080fd5b610f048482856115f3565b509392505050565b600081359050610f1b81611843565b92915050565b600081359050610f308161185a565b92915050565b600081519050610f458161185a565b92915050565b600082601f830112610f5c57600080fd5b8135610f6c848260208601610ece565b91505092915050565b600081359050610f8481611871565b92915050565b600081519050610f9981611871565b92915050565b600060208284031215610fb157600080fd5b6000610fbf84828501610f0c565b91505092915050565b600080600060608486031215610fdd57600080fd5b6000610feb86828701610f0c565b9350506020610ffc86828701610f75565b925050604061100d86828701610f21565b9150509250925092565b60006020828403121561102957600080fd5b600061103784828501610f36565b91505092915050565b60006020828403121561105257600080fd5b600082013567ffffffffffffffff81111561106c57600080fd5b61107884828501610f4b565b91505092915050565b60006020828403121561109357600080fd5b60006110a184828501610f8a565b91505092915050565b600080604083850312156110bd57600080fd5b60006110cb85828601610f75565b925050602083013567ffffffffffffffff8111156110e857600080fd5b6110f485828601610f4b565b9150509250929050565b61110781611563565b82525050565b611116816115ab565b82525050565b611125816115cf565b82525050565b600061113682611466565b6111408185611471565b9350611150818560208601611602565b611159816116f3565b840191505092915050565b6000611171602683611471565b915061117c82611704565b604082019050919050565b6000611194603283611471565b915061119f82611753565b604082019050919050565b60006111b7602083611471565b91506111c2826117a2565b602082019050919050565b60006111da602783611471565b91506111e5826117cb565b604082019050919050565b60006111fd601f83611471565b91506112088261181a565b602082019050919050565b61121c816115a1565b82525050565b600060208201905061123760008301846110fe565b92915050565b600060608201905061125260008301866110fe565b61125f60208301856110fe565b61126c6040830184611213565b949350505050565b600060408201905061128960008301856110fe565b818103602083015261129b818461112b565b90509392505050565b60006040820190506112b960008301856110fe565b6112c66020830184611213565b9392505050565b60006020820190506112e2600083018461110d565b92915050565b60006020820190506112fd600083018461111c565b92915050565b6000602082019050818103600083015261131d818461112b565b905092915050565b6000602082019050818103600083015261133e81611164565b9050919050565b6000602082019050818103600083015261135e81611187565b9050919050565b6000602082019050818103600083015261137e816111aa565b9050919050565b6000602082019050818103600083015261139e816111cd565b9050919050565b600060208201905081810360008301526113be816111f0565b9050919050565b60006020820190506113da6000830184611213565b92915050565b60006040820190506113f56000830185611213565b8181036020830152611407818461112b565b90509392505050565b600061141a61142b565b90506114268282611635565b919050565b6000604051905090565b600067ffffffffffffffff8211156114505761144f6116c4565b5b611459826116f3565b9050602081019050919050565b600081519050919050565b600082825260208201905092915050565b600061148d826115a1565b9150611498836115a1565b9250827fffffffffffffffffffffffffffffffffffffffffffffffffffffffffffffffff038211156114cd576114cc611666565b5b828201905092915050565b60006114e3826115a1565b91506114ee836115a1565b9250826114fe576114fd611695565b5b828204905092915050565b6000611514826115a1565b915061151f836115a1565b9250817fffffffffffffffffffffffffffffffffffffffffffffffffffffffffffffffff048311821515161561155857611557611666565b5b828202905092915050565b600061156e82611581565b9050919050565b60008115159050919050565b600073ffffffffffffffffffffffffffffffffffffffff82169050919050565b6000819050919050565b60006115b6826115bd565b9050919050565b60006115c882611581565b9050919050565b60006115da826115e1565b9050919050565b60006115ec82611581565b9050919050565b82818337600083830152505050565b60005b83811015611620578082015181840152602081019050611605565b8381111561162f576000848401525b50505050565b61163e826116f3565b810181811067ffffffffffffffff8211171561165d5761165c6116c4565b5b80604052505050565b7f4e487b7100000000000000000000000000000000000000000000000000000000600052601160045260246000fd5b7f4e487b7100000000000000000000000000000000000000000000000000000000600052601260045260246000fd5b7f4e487b7100000000000000000000000000000000000000000000000000000000600052604160045260246000fd5b6000601f19601f8301169050919050565b7f4f776e61626c653a206e6577206f776e657220697320746865207a65726f206160008201527f6464726573730000000000000000000000000000000000000000000000000000602082015250565b7f5765623353686f7023726566756e643a20526566756e6420726571756573742060008201527f3e2063756d756c6174697665207370656e640000000000000000000000000000602082015250565b7f4f776e61626c653a2063616c6c6572206973206e6f7420746865206f776e6572600082015250565b7f5765623353686f7023726566756e643a20526566756e64207472616e7366657260008201527f206661696c656400000000000000000000000000000000000000000000000000602082015250565b7f5265656e7472616e637947756172643a207265656e7472616e742063616c6c00600082015250565b61184c81611563565b811461185757600080fd5b50565b61186381611575565b811461186e57600080fd5b50565b61187a816115a1565b811461188557600080fd5b5056fea2646970667358221220ae95ca0ce266e5a8443e084891f1f41365d9e7b64b92d732af1adef50c18c98f64736f6c6343000804003360806040523480156200001157600080fd5b50604051620036ae380380620036ae8339818101604052810190620000379190620002bb565b828281600090805190602001906200005192919062000199565b5080600190805190602001906200006a92919062000199565b50505060006200007f6200017b60201b60201c565b905080600660006101000a81548173ffffffffffffffffffffffffffffffffffffffff021916908373ffffffffffffffffffffffffffffffffffffffff1602179055508073ffffffffffffffffffffffffffffffffffffffff16600073ffffffffffffffffffffffffffffffffffffffff167f8be0079c531659141344cd1fd0a4f28419497f9722a3daafe3b4186f6b6457e060405160405180910390a35080600790805190602001906200013692919062000199565b5060005b606381101562000171576200015b60086200018360201b620012801760201c565b8080620001689062000467565b9150506200013a565b5050505062000553565b600033905090565b6001816000016000828254019250508190555050565b828054620001a790620003fb565b90600052602060002090601f016020900481019282620001cb576000855562000217565b82601f10620001e657805160ff191683800117855562000217565b8280016001018555821562000217579182015b8281111562000216578251825591602001919060010190620001f9565b5b5090506200022691906200022a565b5090565b5b80821115620002455760008160009055506001016200022b565b5090565b6000620002606200025a8462000385565b6200035c565b9050828152602081018484840111156200027957600080fd5b62000286848285620003c5565b509392505050565b600082601f830112620002a057600080fd5b8151620002b284826020860162000249565b91505092915050565b600080600060608486031215620002d157600080fd5b600084015167ffffffffffffffff811115620002ec57600080fd5b620002fa868287016200028e565b935050602084015167ffffffffffffffff8111156200031857600080fd5b62000326868287016200028e565b925050604084015167ffffffffffffffff8111156200034457600080fd5b62000352868287016200028e565b9150509250925092565b6000620003686200037b565b905062000376828262000431565b919050565b6000604051905090565b600067ffffffffffffffff821115620003a357620003a262000513565b5b620003ae8262000542565b9050602081019050919050565b6000819050919050565b60005b83811015620003e5578082015181840152602081019050620003c8565b83811115620003f5576000848401525b50505050565b600060028204905060018216806200041457607f821691505b602082108114156200042b576200042a620004e4565b5b50919050565b6200043c8262000542565b810181811067ffffffffffffffff821117156200045e576200045d62000513565b5b80604052505050565b60006200047482620003bb565b91507fffffffffffffffffffffffffffffffffffffffffffffffffffffffffffffffff821415620004aa57620004a9620004b5565b5b600182019050919050565b7f4e487b7100000000000000000000000000000000000000000000000000000000600052601160045260246000fd5b7f4e487b7100000000000000000000000000000000000000000000000000000000600052602260045260246000fd5b7f4e487b7100000000000000000000000000000000000000000000000000000000600052604160045260246000fd5b6000601f19601f8301169050919050565b61314b80620005636000396000f3fe608060405234801561001057600080fd5b50600436106101375760003560e01c8063715018a6116100b8578063ac463c651161007c578063ac463c651461033a578063b3dc00fe14610358578063b88d4fde14610388578063c87b56dd146103a4578063e985e9c5146103d4578063f2fde38b1461040457610137565b8063715018a6146102ba5780638da5cb5b146102c457806395d89b41146102e25780639abc832014610300578063a22cb4651461031e57610137565b80633d02d0c9116100ff5780633d02d0c9146101f257806342842e0e1461022257806355f804b31461023e5780636352211e1461025a57806370a082311461028a57610137565b806301ffc9a71461013c57806306fdde031461016c578063081812fc1461018a578063095ea7b3146101ba57806323b872dd146101d6575b600080fd5b610156600480360381019061015191906121dd565b610420565b6040516101639190612624565b60405180910390f35b610174610502565b604051610181919061263f565b60405180910390f35b6101a4600480360381019061019f9190612270565b610594565b6040516101b191906125bd565b60405180910390f35b6101d460048036038101906101cf91906121a1565b610619565b005b6101f060048036038101906101eb9190612047565b610731565b005b61020c6004803603810190610207919061214d565b610791565b6040516102199190612861565b60405180910390f35b61023c60048036038101906102379190612047565b610863565b005b6102586004803603810190610253919061222f565b610883565b005b610274600480360381019061026f9190612270565b610919565b60405161028191906125bd565b60405180910390f35b6102a4600480360381019061029f9190611fe2565b6109cb565b6040516102b19190612861565b60405180910390f35b6102c2610a83565b005b6102cc610bc0565b6040516102d991906125bd565b60405180910390f35b6102ea610bea565b6040516102f7919061263f565b60405180910390f35b610308610c7c565b604051610315919061263f565b60405180910390f35b61033860048036038101906103339190612111565b610d0a565b005b610342610e8b565b60405161034f9190612861565b60405180910390f35b610372600480360381019061036d9190612270565b610e97565b60405161037f919061263f565b60405180910390f35b6103a2600480360381019061039d9190612096565b610f37565b005b6103be60048036038101906103b99190612270565b610f99565b6040516103cb919061263f565b60405180910390f35b6103ee60048036038101906103e9919061200b565b611040565b6040516103fb9190612624565b60405180910390f35b61041e60048036038101906104199190611fe2565b6110d4565b005b60007f80ac58cd000000000000000000000000000000000000000000000000000000007bffffffffffffffffffffffffffffffffffffffffffffffffffffffff1916827bffffffffffffffffffffffffffffffffffffffffffffffffffffffff191614806104eb57507f5b5e139f000000000000000000000000000000000000000000000000000000007bffffffffffffffffffffffffffffffffffffffffffffffffffffffff1916827bffffffffffffffffffffffffffffffffffffffffffffffffffffffff1916145b806104fb57506104fa82611296565b5b9050919050565b60606000805461051190612ab7565b80601f016020809104026020016040519081016040528092919081815260200182805461053d90612ab7565b801561058a5780601f1061055f5761010080835404028352916020019161058a565b820191906000526020600020905b81548152906001019060200180831161056d57829003601f168201915b5050505050905090565b600061059f82611300565b6105de576040517f08c379a00000000000000000000000000000000000000000000000000000000081526004016105d5906127a1565b60405180910390fd5b6004600083815260200190815260200160002060009054906101000a900473ffffffffffffffffffffffffffffffffffffffff169050919050565b600061062482610919565b90508073ffffffffffffffffffffffffffffffffffffffff168373ffffffffffffffffffffffffffffffffffffffff161415610695576040517f08c379a000000000000000000000000000000000000000000000000000000000815260040161068c90612821565b60405180910390fd5b8073ffffffffffffffffffffffffffffffffffffffff166106b461136c565b73ffffffffffffffffffffffffffffffffffffffff1614806106e357506106e2816106dd61136c565b611040565b5b610722576040517f08c379a000000000000000000000000000000000000000000000000000000000815260040161071990612721565b60405180910390fd5b61072c8383611374565b505050565b61074261073c61136c565b8261142d565b610781576040517f08c379a000000000000000000000000000000000000000000000000000000000815260040161077890612841565b60405180910390fd5b61078c83838361150b565b505050565b600061079b61136c565b73ffffffffffffffffffffffffffffffffffffffff166107b9610bc0565b73ffffffffffffffffffffffffffffffffffffffff161461080f576040517f08c379a0000000000000000000000000000000000000000000000000000000008152600401610806906127c1565b60405180910390fd5b6108196008611280565b60006108256008611767565b90508260096000838152602001908152602001600020908051906020019061084e929190611e06565b506108598482611775565b8091505092915050565b61087e83838360405180602001604052806000815250610f37565b505050565b61088b61136c565b73ffffffffffffffffffffffffffffffffffffffff166108a9610bc0565b73ffffffffffffffffffffffffffffffffffffffff16146108ff576040517f08c379a00000000000000000000000000000000000000000000000000000000081526004016108f6906127c1565b60405180910390fd5b8060079080519060200190610915929190611e06565b5050565b6000806002600084815260200190815260200160002060009054906101000a900473ffffffffffffffffffffffffffffffffffffffff169050600073ffffffffffffffffffffffffffffffffffffffff168173ffffffffffffffffffffffffffffffffffffffff1614156109c2576040517f08c379a00000000000000000000000000000000000000000000000000000000081526004016109b990612761565b60405180910390fd5b80915050919050565b60008073ffffffffffffffffffffffffffffffffffffffff168273ffffffffffffffffffffffffffffffffffffffff161415610a3c576040517f08c379a0000000000000000000000000000000000000000000000000000000008152600401610a3390612741565b60405180910390fd5b600360008373ffffffffffffffffffffffffffffffffffffffff1673ffffffffffffffffffffffffffffffffffffffff168152602001908152602001600020549050919050565b610a8b61136c565b73ffffffffffffffffffffffffffffffffffffffff16610aa9610bc0565b73ffffffffffffffffffffffffffffffffffffffff1614610aff576040517f08c379a0000000000000000000000000000000000000000000000000000000008152600401610af6906127c1565b60405180910390fd5b600073ffffffffffffffffffffffffffffffffffffffff16600660009054906101000a900473ffffffffffffffffffffffffffffffffffffffff1673ffffffffffffffffffffffffffffffffffffffff167f8be0079c531659141344cd1fd0a4f28419497f9722a3daafe3b4186f6b6457e060405160405180910390a36000600660006101000a81548173ffffffffffffffffffffffffffffffffffffffff021916908373ffffffffffffffffffffffffffffffffffffffff160217905550565b6000600660009054906101000a900473ffffffffffffffffffffffffffffffffffffffff16905090565b606060018054610bf990612ab7565b80601f0160208091040260200160405190810160405280929190818152602001828054610c2590612ab7565b8015610c725780601f10610c4757610100808354040283529160200191610c72565b820191906000526020600020905b815481529060010190602001808311610c5557829003601f168201915b5050505050905090565b60078054610c8990612ab7565b80601f0160208091040260200160405190810160405280929190818152602001828054610cb590612ab7565b8015610d025780601f10610cd757610100808354040283529160200191610d02565b820191906000526020600020905b815481529060010190602001808311610ce557829003601f168201915b505050505081565b610d1261136c565b73ffffffffffffffffffffffffffffffffffffffff168273ffffffffffffffffffffffffffffffffffffffff161415610d80576040517f08c379a0000000000000000000000000000000000000000000000000000000008152600401610d77906126e1565b60405180910390fd5b8060056000610d8d61136c565b73ffffffffffffffffffffffffffffffffffffffff1673ffffffffffffffffffffffffffffffffffffffff16815260200190815260200160002060008473ffffffffffffffffffffffffffffffffffffffff1673ffffffffffffffffffffffffffffffffffffffff16815260200190815260200160002060006101000a81548160ff0219169083151502179055508173ffffffffffffffffffffffffffffffffffffffff16610e3a61136c565b73ffffffffffffffffffffffffffffffffffffffff167f17307eab39ab6107e8899845ad3d59bd9653f200f220920489ca2b5937696c3183604051610e7f9190612624565b60405180910390a35050565b60088060000154905081565b60096020528060005260406000206000915090508054610eb690612ab7565b80601f0160208091040260200160405190810160405280929190818152602001828054610ee290612ab7565b8015610f2f5780601f10610f0457610100808354040283529160200191610f2f565b820191906000526020600020905b815481529060010190602001808311610f1257829003601f168201915b505050505081565b610f48610f4261136c565b8361142d565b610f87576040517f08c379a0000000000000000000000000000000000000000000000000000000008152600401610f7e90612841565b60405180910390fd5b610f9384848484611793565b50505050565b6060610fa482611300565b610fe3576040517f08c379a0000000000000000000000000000000000000000000000000000000008152600401610fda90612801565b60405180910390fd5b6000610fed6117ef565b9050600081511161100d5760405180602001604052806000815250611038565b8061101784611881565b604051602001611028929190612599565b6040516020818303038152906040525b915050919050565b6000600560008473ffffffffffffffffffffffffffffffffffffffff1673ffffffffffffffffffffffffffffffffffffffff16815260200190815260200160002060008373ffffffffffffffffffffffffffffffffffffffff1673ffffffffffffffffffffffffffffffffffffffff16815260200190815260200160002060009054906101000a900460ff16905092915050565b6110dc61136c565b73ffffffffffffffffffffffffffffffffffffffff166110fa610bc0565b73ffffffffffffffffffffffffffffffffffffffff1614611150576040517f08c379a0000000000000000000000000000000000000000000000000000000008152600401611147906127c1565b60405180910390fd5b600073ffffffffffffffffffffffffffffffffffffffff168173ffffffffffffffffffffffffffffffffffffffff1614156111c0576040517f08c379a00000000000000000000000000000000000000000000000000000000081526004016111b790612681565b60405180910390fd5b8073ffffffffffffffffffffffffffffffffffffffff16600660009054906101000a900473ffffffffffffffffffffffffffffffffffffffff1673ffffffffffffffffffffffffffffffffffffffff167f8be0079c531659141344cd1fd0a4f28419497f9722a3daafe3b4186f6b6457e060405160405180910390a380600660006101000a81548173ffffffffffffffffffffffffffffffffffffffff021916908373ffffffffffffffffffffffffffffffffffffffff16021790555050565b6001816000016000828254019250508190555050565b60007f01ffc9a7000000000000000000000000000000000000000000000000000000007bffffffffffffffffffffffffffffffffffffffffffffffffffffffff1916827bffffffffffffffffffffffffffffffffffffffffffffffffffffffff1916149050919050565b60008073ffffffffffffffffffffffffffffffffffffffff166002600084815260200190815260200160002060009054906101000a900473ffffffffffffffffffffffffffffffffffffffff1673ffffffffffffffffffffffffffffffffffffffff1614159050919050565b600033905090565b816004600083815260200190815260200160002060006101000a81548173ffffffffffffffffffffffffffffffffffffffff021916908373ffffffffffffffffffffffffffffffffffffffff160217905550808273ffffffffffffffffffffffffffffffffffffffff166113e783610919565b73ffffffffffffffffffffffffffffffffffffffff167f8c5be1e5ebec7d5bd14f71427d1e84f3dd0314c0f7b2291e5b200ac8c7c3b92560405160405180910390a45050565b600061143882611300565b611477576040517f08c379a000000000000000000000000000000000000000000000000000000000815260040161146e90612701565b60405180910390fd5b600061148283610919565b90508073ffffffffffffffffffffffffffffffffffffffff168473ffffffffffffffffffffffffffffffffffffffff1614806114f157508373ffffffffffffffffffffffffffffffffffffffff166114d984610594565b73ffffffffffffffffffffffffffffffffffffffff16145b8061150257506115018185611040565b5b91505092915050565b8273ffffffffffffffffffffffffffffffffffffffff1661152b82610919565b73ffffffffffffffffffffffffffffffffffffffff1614611581576040517f08c379a0000000000000000000000000000000000000000000000000000000008152600401611578906127e1565b60405180910390fd5b600073ffffffffffffffffffffffffffffffffffffffff168273ffffffffffffffffffffffffffffffffffffffff1614156115f1576040517f08c379a00000000000000000000000000000000000000000000000000000000081526004016115e8906126c1565b60405180910390fd5b6115fc838383611a2e565b611607600082611374565b6001600360008573ffffffffffffffffffffffffffffffffffffffff1673ffffffffffffffffffffffffffffffffffffffff168152602001908152602001600020600082825461165791906129cd565b925050819055506001600360008473ffffffffffffffffffffffffffffffffffffffff1673ffffffffffffffffffffffffffffffffffffffff16815260200190815260200160002060008282546116ae9190612946565b92505081905550816002600083815260200190815260200160002060006101000a81548173ffffffffffffffffffffffffffffffffffffffff021916908373ffffffffffffffffffffffffffffffffffffffff160217905550808273ffffffffffffffffffffffffffffffffffffffff168473ffffffffffffffffffffffffffffffffffffffff167fddf252ad1be2c89b69c2b068fc378daa952ba7f163c4a11628f55a4df523b3ef60405160405180910390a4505050565b600081600001549050919050565b61178f828260405180602001604052806000815250611a33565b5050565b61179e84848461150b565b6117aa84848484611a8e565b6117e9576040517f08c379a00000000000000000000000000000000000000000000000000000000081526004016117e090612661565b60405180910390fd5b50505050565b6060600780546117fe90612ab7565b80601f016020809104026020016040519081016040528092919081815260200182805461182a90612ab7565b80156118775780601f1061184c57610100808354040283529160200191611877565b820191906000526020600020905b81548152906001019060200180831161185a57829003601f168201915b5050505050905090565b606060008214156118c9576040518060400160405280600181526020017f30000000000000000000000000000000000000000000000000000000000000008152509050611a29565b600082905060005b600082146118fb5780806118e490612b1a565b915050600a826118f4919061299c565b91506118d1565b60008167ffffffffffffffff81111561193d577f4e487b7100000000000000000000000000000000000000000000000000000000600052604160045260246000fd5b6040519080825280601f01601f19166020018201604052801561196f5781602001600182028036833780820191505090505b5090505b60008514611a225760018261198891906129cd565b9150600a856119979190612b63565b60306119a39190612946565b60f81b8183815181106119df577f4e487b7100000000000000000000000000000000000000000000000000000000600052603260045260246000fd5b60200101907effffffffffffffffffffffffffffffffffffffffffffffffffffffffffffff1916908160001a905350600a85611a1b919061299c565b9450611973565b8093505050505b919050565b505050565b611a3d8383611c25565b611a4a6000848484611a8e565b611a89576040517f08c379a0000000000000000000000000000000000000000000000000000000008152600401611a8090612661565b60405180910390fd5b505050565b6000611aaf8473ffffffffffffffffffffffffffffffffffffffff16611df3565b15611c18578373ffffffffffffffffffffffffffffffffffffffff1663150b7a02611ad861136c565b8786866040518563ffffffff1660e01b8152600401611afa94939291906125d8565b602060405180830381600087803b158015611b1457600080fd5b505af1925050508015611b4557506040513d601f19601f82011682018060405250810190611b429190612206565b60015b611bc8573d8060008114611b75576040519150601f19603f3d011682016040523d82523d6000602084013e611b7a565b606091505b50600081511415611bc0576040517f08c379a0000000000000000000000000000000000000000000000000000000008152600401611bb790612661565b60405180910390fd5b805181602001fd5b63150b7a0260e01b7bffffffffffffffffffffffffffffffffffffffffffffffffffffffff1916817bffffffffffffffffffffffffffffffffffffffffffffffffffffffff191614915050611c1d565b600190505b949350505050565b600073ffffffffffffffffffffffffffffffffffffffff168273ffffffffffffffffffffffffffffffffffffffff161415611c95576040517f08c379a0000000000000000000000000000000000000000000000000000000008152600401611c8c90612781565b60405180910390fd5b611c9e81611300565b15611cde576040517f08c379a0000000000000000000000000000000000000000000000000000000008152600401611cd5906126a1565b60405180910390fd5b611cea60008383611a2e565b6001600360008473ffffffffffffffffffffffffffffffffffffffff1673ffffffffffffffffffffffffffffffffffffffff1681526020019081526020016000206000828254611d3a9190612946565b92505081905550816002600083815260200190815260200160002060006101000a81548173ffffffffffffffffffffffffffffffffffffffff021916908373ffffffffffffffffffffffffffffffffffffffff160217905550808273ffffffffffffffffffffffffffffffffffffffff16600073ffffffffffffffffffffffffffffffffffffffff167fddf252ad1be2c89b69c2b068fc378daa952ba7f163c4a11628f55a4df523b3ef60405160405180910390a45050565b600080823b905060008111915050919050565b828054611e1290612ab7565b90600052602060002090601f016020900481019282611e345760008555611e7b565b82601f10611e4d57805160ff1916838001178555611e7b565b82800160010185558215611e7b579182015b82811115611e7a578251825591602001919060010190611e5f565b5b509050611e889190611e8c565b5090565b5b80821115611ea5576000816000905550600101611e8d565b5090565b6000611ebc611eb7846128a1565b61287c565b905082815260208101848484011115611ed457600080fd5b611edf848285612a75565b509392505050565b6000611efa611ef5846128d2565b61287c565b905082815260208101848484011115611f1257600080fd5b611f1d848285612a75565b509392505050565b600081359050611f34816130b9565b92915050565b600081359050611f49816130d0565b92915050565b600081359050611f5e816130e7565b92915050565b600081519050611f73816130e7565b92915050565b600082601f830112611f8a57600080fd5b8135611f9a848260208601611ea9565b91505092915050565b600082601f830112611fb457600080fd5b8135611fc4848260208601611ee7565b91505092915050565b600081359050611fdc816130fe565b92915050565b600060208284031215611ff457600080fd5b600061200284828501611f25565b91505092915050565b6000806040838503121561201e57600080fd5b600061202c85828601611f25565b925050602061203d85828601611f25565b9150509250929050565b60008060006060848603121561205c57600080fd5b600061206a86828701611f25565b935050602061207b86828701611f25565b925050604061208c86828701611fcd565b9150509250925092565b600080600080608085870312156120ac57600080fd5b60006120ba87828801611f25565b94505060206120cb87828801611f25565b93505060406120dc87828801611fcd565b925050606085013567ffffffffffffffff8111156120f957600080fd5b61210587828801611f79565b91505092959194509250565b6000806040838503121561212457600080fd5b600061213285828601611f25565b925050602061214385828601611f3a565b9150509250929050565b6000806040838503121561216057600080fd5b600061216e85828601611f25565b925050602083013567ffffffffffffffff81111561218b57600080fd5b61219785828601611fa3565b9150509250929050565b600080604083850312156121b457600080fd5b60006121c285828601611f25565b92505060206121d385828601611fcd565b9150509250929050565b6000602082840312156121ef57600080fd5b60006121fd84828501611f4f565b91505092915050565b60006020828403121561221857600080fd5b600061222684828501611f64565b91505092915050565b60006020828403121561224157600080fd5b600082013567ffffffffffffffff81111561225b57600080fd5b61226784828501611fa3565b91505092915050565b60006020828403121561228257600080fd5b600061229084828501611fcd565b91505092915050565b6122a281612a01565b82525050565b6122b181612a13565b82525050565b60006122c282612903565b6122cc8185612919565b93506122dc818560208601612a84565b6122e581612c50565b840191505092915050565b60006122fb8261290e565b612305818561292a565b9350612315818560208601612a84565b61231e81612c50565b840191505092915050565b60006123348261290e565b61233e818561293b565b935061234e818560208601612a84565b80840191505092915050565b600061236760328361292a565b915061237282612c61565b604082019050919050565b600061238a60268361292a565b915061239582612cb0565b604082019050919050565b60006123ad601c8361292a565b91506123b882612cff565b602082019050919050565b60006123d060248361292a565b91506123db82612d28565b604082019050919050565b60006123f360198361292a565b91506123fe82612d77565b602082019050919050565b6000612416602c8361292a565b915061242182612da0565b604082019050919050565b600061243960388361292a565b915061244482612def565b604082019050919050565b600061245c602a8361292a565b915061246782612e3e565b604082019050919050565b600061247f60298361292a565b915061248a82612e8d565b604082019050919050565b60006124a260208361292a565b91506124ad82612edc565b602082019050919050565b60006124c5602c8361292a565b91506124d082612f05565b604082019050919050565b60006124e860208361292a565b91506124f382612f54565b602082019050919050565b600061250b60298361292a565b915061251682612f7d565b604082019050919050565b600061252e602f8361292a565b915061253982612fcc565b604082019050919050565b600061255160218361292a565b915061255c8261301b565b604082019050919050565b600061257460318361292a565b915061257f8261306a565b604082019050919050565b61259381612a6b565b82525050565b60006125a58285612329565b91506125b18284612329565b91508190509392505050565b60006020820190506125d26000830184612299565b92915050565b60006080820190506125ed6000830187612299565b6125fa6020830186612299565b612607604083018561258a565b818103606083015261261981846122b7565b905095945050505050565b600060208201905061263960008301846122a8565b92915050565b6000602082019050818103600083015261265981846122f0565b905092915050565b6000602082019050818103600083015261267a8161235a565b9050919050565b6000602082019050818103600083015261269a8161237d565b9050919050565b600060208201905081810360008301526126ba816123a0565b9050919050565b600060208201905081810360008301526126da816123c3565b9050919050565b600060208201905081810360008301526126fa816123e6565b9050919050565b6000602082019050818103600083015261271a81612409565b9050919050565b6000602082019050818103600083015261273a8161242c565b9050919050565b6000602082019050818103600083015261275a8161244f565b9050919050565b6000602082019050818103600083015261277a81612472565b9050919050565b6000602082019050818103600083015261279a81612495565b9050919050565b600060208201905081810360008301526127ba816124b8565b9050919050565b600060208201905081810360008301526127da816124db565b9050919050565b600060208201905081810360008301526127fa816124fe565b9050919050565b6000602082019050818103600083015261281a81612521565b9050919050565b6000602082019050818103600083015261283a81612544565b9050919050565b6000602082019050818103600083015261285a81612567565b9050919050565b6000602082019050612876600083018461258a565b92915050565b6000612886612897565b90506128928282612ae9565b919050565b6000604051905090565b600067ffffffffffffffff8211156128bc576128bb612c21565b5b6128c582612c50565b9050602081019050919050565b600067ffffffffffffffff8211156128ed576128ec612c21565b5b6128f682612c50565b9050602081019050919050565b600081519050919050565b600081519050919050565b600082825260208201905092915050565b600082825260208201905092915050565b600081905092915050565b600061295182612a6b565b915061295c83612a6b565b9250827fffffffffffffffffffffffffffffffffffffffffffffffffffffffffffffffff0382111561299157612990612b94565b5b828201905092915050565b60006129a782612a6b565b91506129b283612a6b565b9250826129c2576129c1612bc3565b5b828204905092915050565b60006129d882612a6b565b91506129e383612a6b565b9250828210156129f6576129f5612b94565b5b828203905092915050565b6000612a0c82612a4b565b9050919050565b60008115159050919050565b60007fffffffff0000000000000000000000000000000000000000000000000000000082169050919050565b600073ffffffffffffffffffffffffffffffffffffffff82169050919050565b6000819050919050565b82818337600083830152505050565b60005b83811015612aa2578082015181840152602081019050612a87565b83811115612ab1576000848401525b50505050565b60006002820490506001821680612acf57607f821691505b60208210811415612ae357612ae2612bf2565b5b50919050565b612af282612c50565b810181811067ffffffffffffffff82111715612b1157612b10612c21565b5b80604052505050565b6000612b2582612a6b565b91507fffffffffffffffffffffffffffffffffffffffffffffffffffffffffffffffff821415612b5857612b57612b94565b5b600182019050919050565b6000612b6e82612a6b565b9150612b7983612a6b565b925082612b8957612b88612bc3565b5b828206905092915050565b7f4e487b7100000000000000000000000000000000000000000000000000000000600052601160045260246000fd5b7f4e487b7100000000000000000000000000000000000000000000000000000000600052601260045260246000fd5b7f4e487b7100000000000000000000000000000000000000000000000000000000600052602260045260246000fd5b7f4e487b7100000000000000000000000000000000000000000000000000000000600052604160045260246000fd5b6000601f19601f8301169050919050565b7f4552433732313a207472616e7366657220746f206e6f6e20455243373231526560008201527f63656976657220696d706c656d656e7465720000000000000000000000000000602082015250565b7f4f776e61626c653a206e6577206f776e657220697320746865207a65726f206160008201527f6464726573730000000000000000000000000000000000000000000000000000602082015250565b7f4552433732313a20746f6b656e20616c7265616479206d696e74656400000000600082015250565b7f4552433732313a207472616e7366657220746f20746865207a65726f2061646460008201527f7265737300000000000000000000000000000000000000000000000000000000602082015250565b7f4552433732313a20617070726f766520746f2063616c6c657200000000000000600082015250565b7f4552433732313a206f70657261746f7220717565727920666f72206e6f6e657860008201527f697374656e7420746f6b656e0000000000000000000000000000000000000000602082015250565b7f4552433732313a20617070726f76652063616c6c6572206973206e6f74206f7760008201527f6e6572206e6f7220617070726f76656420666f7220616c6c0000000000000000602082015250565b7f4552433732313a2062616c616e636520717565727920666f7220746865207a6560008201527f726f206164647265737300000000000000000000000000000000000000000000602082015250565b7f4552433732313a206f776e657220717565727920666f72206e6f6e657869737460008201527f656e7420746f6b656e0000000000000000000000000000000000000000000000602082015250565b7f4552433732313a206d696e7420746f20746865207a65726f2061646472657373600082015250565b7f4552433732313a20617070726f76656420717565727920666f72206e6f6e657860008201527f697374656e7420746f6b656e0000000000000000000000000000000000000000602082015250565b7f4f776e61626c653a2063616c6c6572206973206e6f7420746865206f776e6572600082015250565b7f4552433732313a207472616e73666572206f6620746f6b656e2074686174206960008201527f73206e6f74206f776e0000000000000000000000000000000000000000000000602082015250565b7f4552433732314d657461646174613a2055524920717565727920666f72206e6f60008201527f6e6578697374656e7420746f6b656e0000000000000000000000000000000000602082015250565b7f4552433732313a20617070726f76616c20746f2063757272656e74206f776e6560008201527f7200000000000000000000000000000000000000000000000000000000000000602082015250565b7f4552433732313a207472616e736665722063616c6c6572206973206e6f74206f60008201527f776e6572206e6f7220617070726f766564000000000000000000000000000000602082015250565b6130c281612a01565b81146130cd57600080fd5b50565b6130d981612a13565b81146130e457600080fd5b50565b6130f081612a1f565b81146130fb57600080fd5b50565b61310781612a6b565b811461311257600080fd5b5056fea2646970667358221220e2d12ed0ead70a7993c0436d6dc3bdb0599e920898631fb8f4431e1f462f302764736f6c63430008040033",
  "immutableReferences": {},
  "source": "// SPDX-License-Identifier: MIT\r\n\r\npragma solidity ^0.8.3;\r\n\r\nimport '@openzeppelin/contracts/token/ERC20/IERC20.sol';\r\nimport '@openzeppelin/contracts/security/ReentrancyGuard.sol';\r\nimport '@openzeppelin/contracts/access/Ownable.sol';\r\nimport './ShopToken.sol';\r\nimport \"./W3StoreProduct.sol\";\r\n\r\ncontract Web3Shop is ReentrancyGuard, Ownable {\r\n\r\n    IERC20 public paymentToken;\r\n    ShopToken public shopToken;\r\n    address public storeNFTaddress;\r\n    uint public rewardRatio = 100;            // payment tokens to spend for 1 reward token\r\n\r\n    mapping(address => uint) public accruedSpend;\r\n\r\n    event paymentMade(address indexed customer, uint amount);\r\n    event nftMinted(address indexed customer, uint nftID, string itemID);\r\n\r\n    constructor (address _paymentToken, string memory nftEndpoint) {\r\n        paymentToken = IERC20(_paymentToken);\r\n\r\n        W3StoreProduct nftContract = new W3StoreProduct(\"Web3 Store Product\", \"W3SP\", nftEndpoint);\r\n        storeNFTaddress = address(nftContract);\r\n    }\r\n\r\n    function updateShopToken(address shopTknAddress) external onlyOwner() {\r\n        shopToken = ShopToken(shopTknAddress);\r\n    }\r\n\r\n    function purchase(uint amount, string memory itemID) external nonReentrant() returns(uint tokenId) {         // add reentrancy guard\r\n        bool success = paymentToken.transferFrom(msg.sender, address(this), amount);\r\n        if(success){\r\n            emit paymentMade(msg.sender, amount);\r\n            accruedSpend[msg.sender] += amount;\r\n\r\n            // product release\r\n            uint nftID = W3StoreProduct(storeNFTaddress).mintToken(msg.sender, itemID);\r\n            emit nftMinted(msg.sender, nftID, itemID);\r\n\r\n            // send reward token\r\n            if(address(shopToken) != address(0)) shopToken.reward(msg.sender, (1000 gwei * amount / rewardRatio)); // account for 6 decimal stables\r\n\r\n            return nftID;\r\n        } else {\r\n            return 0;\r\n        }\r\n    }\r\n\r\n    function refund(address recipient, uint amount, bool mustBurn) external onlyOwner() nonReentrant() {    // add reentrancy guard\r\n        require(accruedSpend[recipient] >= amount, \"Web3Shop#refund: Refund request > cumulative spend\");\r\n        if( (address(shopToken) != address(0)) && mustBurn ) shopToken.burn(recipient, 1000 gwei * amount / rewardRatio);\r\n\r\n        // verify product return\r\n\r\n        bool success = paymentToken.transfer(recipient, amount);\r\n        require(success, \"Web3Shop#refund: Refund transfer failed\");\r\n    }\r\n\r\n    // NFT functions\r\n    function setNFTbaseUri(string memory uri) external onlyOwner() {\r\n        W3StoreProduct(storeNFTaddress).setBaseURI(uri);\r\n    }\r\n}",
  "sourcePath": "C:\\Users\\DELL\\Documents\\Projects\\block-store\\contracts\\Web3Shop.sol",
  "compiler": {
    "name": "solc",
    "version": "0.8.4+commit.c7e474f2.Emscripten.clang"
  },
  "schemaVersion": "3.3.4",
  "updatedAt": "2021-08-13T08:10:24.296Z",
  "networkType": "ethereum",
  "devdoc": {
    "kind": "dev",
    "methods": {
      "owner()": {
        "details": "Returns the address of the current owner."
      },
      "renounceOwnership()": {
        "details": "Leaves the contract without owner. It will not be possible to call `onlyOwner` functions anymore. Can only be called by the current owner. NOTE: Renouncing ownership will leave the contract without an owner, thereby removing any functionality that is only available to the owner."
      },
      "transferOwnership(address)": {
        "details": "Transfers ownership of the contract to a new account (`newOwner`). Can only be called by the current owner."
      }
    },
    "version": 1
  },
  "userdoc": {
    "kind": "user",
    "methods": {},
    "version": 1
  }
}